:100000006DC0189510C018951895189518951895E5
:1000100018954EC018951895189518951895189517
:100020001895189518958F937F937FB77F9372EFEC
:1000300072BF80917200882321F4809373003A9AF2
:100040002FC0893050F4889482990894709173007D
:1000500077957093730003C023C0893041F4829B6D
:1000600005C03A9B02C03A9801C03A9A19C03A9921
:1000700016C012BEA89AEF93FF93E0917000E3952B
:10008000EF70F0917100FE1741F0E0937000FF27D0
:10009000E05AFF4F709173007083FF91EF918FEFE3
:1000A0008395809372007F917FBF7F918F91189588
:1000B000A898109272001895E0917100F09170006C
:1000C000E894FE1301C008956894E395EF70E093FF
:1000D0007100FF27E05AFF4F8081089504E00EBFB2
:1000E0000FE50DBF0EE207BB01E004BB08E005BF52
:1000F00000E80BBF05E003BF01E009BFC19A00E5BE
:100100000DB901E00EB91124C19A1092700010923D
:1001100071001092720033D17894CEDF66F5E894C6
:100120003899689439990CC0853848F4880FF1E003
:10013000E8E7E80FF11D85919491FC0109940BC04B
:100140008E3748F4880FF2E0E2E8E80FF11D859160
:100150009491FC010994803E11F4399ADECF813EDE
:1001600011F4399ADACF803F11F4389AD6CF01C012
:1001700014D138983998D1CFE0014F02E0014B02F9
:100180004902470248025202E00150024E024C026C
:100190004A02EB01E001E001E001E101E301E001DD
:1001A000E7013302F701E001E001E0014502370217
:1001B00013023F02F901E001E001170241021902B6
:1001C0001B02FD01FB01E001E001E9013D021D020E
:1001D00039023502FF01E001E0012D021502210282
:1001E0001F0243020102E001E001E0012B022502AF
:1001F0003B0203020502E001E001F20127022302B3
:100200002F02F5010702E001E001E001F3012902FC
:10021000F4013102E001E001E001E001E001E00170
:10022000E001E001E001E001EF01E501ED01E001A5
:10023000E001E001E001E001E001E001E001E001B6
:10024000E001E0015F02E001E0010A02E0010D02CD
:100250001002E001E001E0010902E0010B020E02E0
:100260000F021102EC01F0015102E0010C02E00169
:10027000E0011202F101E001E001E001E0014D02C4
:10028000E001E001E001E001E001E001E001E00166
:10029000E001E001E001E001E001E001E001E00156
:1002A000E001E001E201E001E001E801E001E0013C
:1002B000E001E001E001E001E001E001E001E00136
:1002C000E001E001E001E001E001E001E001E00126
:1002D000E001E001E001E001E001E001E001E00116
:1002E000E001E001E001E001E001E001E001E00106
:1002F000E001E001E001E001E001E001E001E001F6
:10030000E001E001E001E001E001E001E001E001E5
:10031000E001E001E001E001E001E001E001E001D5
:10032000E001E001E001E001E001E001E001E001C5
:10033000E001E001E001ED01E001E001E001E001A8
:10034000E001E001E001E001E001E001E001E001A5
:10035000E001E001E001E0015302E001E001E00121
:10036000E001E001E0015C02E00156025902E00117
:10037000E001E001E001E001E001E001E0018FEFD8
:10038000882E982EA82EB82EC82ED82EE82EF82EFD
:1003900008950FB9779BFECF0895C198082DF9DF16
:1003A000092DF7DF0A2DF5DF0B2DF3DF0C2DF1DF23
:1003B0000D2DEFDF0E2DEDDF0F2DEBDFC19A089530
:1003C000D8CED6CED5CE80F8D3CEF1F8D1CED0CE01
:1003D000CFCEF0F8CDCECCCECBCEE0F8C9CEC8CEC5
:1003E000C7CEC6CEC5CEC4CEC3CEC0F8C1CEB0F83F
:1003F000BFCEB1F8BDCEB2F8BBCEB3F8B9CEB4F82B
:10040000B7CEC4F8B5CEC3F8B3CEC2F8B1CEC1F8FA
:10041000AFCEAECEADCEACCEABCEAACEA9CEA8CE10
:10042000A7CEA6CEA5CE90F8A3CEF4F8A1CE83F8A1
:100430009FCE92F89DCEA2F89BCE93F899CE94F8D9
:1004400097CEE4F895CED2F893CEE3F891CEE2F8C9
:100450008FCEE1F88DCEF2F88BCEF3F889CED1F8BD
:1004600087CED0F885CEA0F883CEA3F881CE91F8C0
:100470007FCEA4F87DCED3F87BCE84F879CEA1F8D8
:1004800077CE82F875CED4F873CE81F871CE70CE67
:100490006FCE6ECE6DCE6CCE6BCE6ACE69CE68CE90
:1004A00067CE66CE65CE80F8B4F862CE80F8C2F82A
:1004B0005FCE80F8C3F85CCE80F8C4F859CE80F8DF
:0404C000C0F856CE5C
:00000001FF
